{
  "_format": "hh-sol-artifact-1",
  "contractName": "TournamentScores",
  "sourceName": "srcs/contracts/TournamentScores.sol",
  "abi": [
    {
      "inputs": [
        {
          "internalType": "string",
          "name": "nickname",
          "type": "string"
        },
        {
          "internalType": "uint256",
          "name": "tournamentId",
          "type": "uint256"
        },
        {
          "internalType": "uint256",
          "name": "wins",
          "type": "uint256"
        },
        {
          "internalType": "uint256",
          "name": "losses",
          "type": "uint256"
        },
        {
          "internalType": "uint256",
          "name": "draws",
          "type": "uint256"
        }
      ],
      "name": "addScore",
      "outputs": [],
      "stateMutability": "nonpayable",
      "type": "function"
    },
    {
      "inputs": [
        {
          "internalType": "string",
          "name": "nickname",
          "type": "string"
        }
      ],
      "name": "getScores",
      "outputs": [
        {
          "components": [
            {
              "internalType": "uint256",
              "name": "tournamentId",
              "type": "uint256"
            },
            {
              "internalType": "uint256",
              "name": "wins",
              "type": "uint256"
            },
            {
              "internalType": "uint256",
              "name": "losses",
              "type": "uint256"
            },
            {
              "internalType": "uint256",
              "name": "draws",
              "type": "uint256"
            }
          ],
          "internalType": "struct TournamentScores.Score[]",
          "name": "",
          "type": "tuple[]"
        }
      ],
      "stateMutability": "view",
      "type": "function"
    }
  ],
  "bytecode": "0x608060405234801561001057600080fd5b5061062e806100206000396000f3fe608060405234801561001057600080fd5b50600436106100365760003560e01c80634b61fb161461003b578063da7da1a814610057575b600080fd5b6100556004803603810190610050919061035b565b610087565b005b610071600480360381019061006c91906103f2565b610126565b60405161007e919061054e565b60405180910390f35b600060405180608001604052808681526020018581526020018481526020018381525090506000866040516100bc91906105e1565b9081526020016040518091039020819080600181540180825580915050600190039060005260206000209060040201600090919091909150600082015181600001556020820151816001015560408201518160020155606082015181600301555050505050505050565b606060008260405161013891906105e1565b9081526020016040518091039020805480602002602001604051908101604052809291908181526020016000905b828210156101c0578382906000526020600020906004020160405180608001604052908160008201548152602001600182015481526020016002820154815260200160038201548152505081526020019060010190610166565b505050509050919050565b6000604051905090565b600080fd5b600080fd5b600080fd5b600080fd5b6000601f19601f8301169050919050565b7f4e487b7100000000000000000000000000000000000000000000000000000000600052604160045260246000fd5b610232826101e9565b810181811067ffffffffffffffff82111715610251576102506101fa565b5b80604052505050565b60006102646101cb565b90506102708282610229565b919050565b600067ffffffffffffffff8211156102905761028f6101fa565b5b610299826101e9565b9050602081019050919050565b82818337600083830152505050565b60006102c86102c384610275565b61025a565b9050828152602081018484840111156102e4576102e36101e4565b5b6102ef8482856102a6565b509392505050565b600082601f83011261030c5761030b6101df565b5b813561031c8482602086016102b5565b91505092915050565b6000819050919050565b61033881610325565b811461034357600080fd5b50565b6000813590506103558161032f565b92915050565b600080600080600060a08688031215610377576103766101d5565b5b600086013567ffffffffffffffff811115610395576103946101da565b5b6103a1888289016102f7565b95505060206103b288828901610346565b94505060406103c388828901610346565b93505060606103d488828901610346565b92505060806103e588828901610346565b9150509295509295909350565b600060208284031215610408576104076101d5565b5b600082013567ffffffffffffffff811115610426576104256101da565b5b610432848285016102f7565b91505092915050565b600081519050919050565b600082825260208201905092915050565b6000819050602082019050919050565b61047081610325565b82525050565b60808201600082015161048c6000850182610467565b50602082015161049f6020850182610467565b5060408201516104b26040850182610467565b5060608201516104c56060850182610467565b50505050565b60006104d78383610476565b60808301905092915050565b6000602082019050919050565b60006104fb8261043b565b6105058185610446565b935061051083610457565b8060005b8381101561054157815161052888826104cb565b9750610533836104e3565b925050600181019050610514565b5085935050505092915050565b6000602082019050818103600083015261056881846104f0565b905092915050565b600081519050919050565b600081905092915050565b60005b838110156105a4578082015181840152602081019050610589565b60008484015250505050565b60006105bb82610570565b6105c5818561057b565b93506105d5818560208601610586565b80840191505092915050565b60006105ed82846105b0565b91508190509291505056fea26469706673582212209054376db4cba422e9aacbe5a415a29fe9b26aa12895b54421108aa0006b792464736f6c63430008140033",
  "linkReferences": {},
  "deployedLinkReferences": {}
}