{
  "_format": "hh-sol-artifact-1",
  "contractName": "TournamentScores",
  "sourceName": "srcs/contracts/TournamentScores.sol",
  "abi": [
    {
      "inputs": [
        {
          "internalType": "string",
          "name": "tournamentId",
          "type": "string"
        },
        {
          "internalType": "string",
          "name": "winnerName",
          "type": "string"
        },
        {
          "internalType": "uint256",
          "name": "wins",
          "type": "uint256"
        },
        {
          "internalType": "string",
          "name": "loserName",
          "type": "string"
        },
        {
          "internalType": "uint256",
          "name": "losses",
          "type": "uint256"
        }
      ],
      "name": "addScore",
      "outputs": [],
      "stateMutability": "nonpayable",
      "type": "function"
    },
    {
      "inputs": [
        {
          "internalType": "string",
          "name": "id",
          "type": "string"
        },
        {
          "internalType": "uint256",
          "name": "index",
          "type": "uint256"
        }
      ],
      "name": "getMatchScore",
      "outputs": [
        {
          "internalType": "string",
          "name": "winnerName",
          "type": "string"
        },
        {
          "internalType": "uint256",
          "name": "winnerScore",
          "type": "uint256"
        },
        {
          "internalType": "string",
          "name": "loserName",
          "type": "string"
        },
        {
          "internalType": "uint256",
          "name": "loserScore",
          "type": "uint256"
        }
      ],
      "stateMutability": "view",
      "type": "function"
    },
    {
      "inputs": [
        {
          "internalType": "string",
          "name": "id",
          "type": "string"
        }
      ],
      "name": "getTournamentScore",
      "outputs": [
        {
          "components": [
            {
              "components": [
                {
                  "internalType": "string",
                  "name": "player",
                  "type": "string"
                },
                {
                  "internalType": "uint256",
                  "name": "score",
                  "type": "uint256"
                }
              ],
              "internalType": "struct TournamentScores.Player",
              "name": "wins",
              "type": "tuple"
            },
            {
              "components": [
                {
                  "internalType": "string",
                  "name": "player",
                  "type": "string"
                },
                {
                  "internalType": "uint256",
                  "name": "score",
                  "type": "uint256"
                }
              ],
              "internalType": "struct TournamentScores.Player",
              "name": "losses",
              "type": "tuple"
            }
          ],
          "internalType": "struct TournamentScores.Score[]",
          "name": "",
          "type": "tuple[]"
        }
      ],
      "stateMutability": "view",
      "type": "function"
    }
  ],
  "bytecode": "0x608060405234801561001057600080fd5b50610e61806100206000396000f3fe608060405234801561001057600080fd5b50600436106100415760003560e01c806358ab4cbc146100465780637cc1c1611461007657806384f248b214610092575b600080fd5b610060600480360381019061005b9190610682565b6100c5565b60405161006d91906108a6565b60405180910390f35b610090600480360381019061008b91906108f4565b6102a2565b005b6100ac60048036038101906100a791906109c3565b610397565b6040516100bc9493929190610a78565b60405180910390f35b60606000826040516100d79190610b07565b9081526020016040518091039020805480602002602001604051908101604052809291908181526020016000905b8282101561029757838290600052602060002090600402016040518060400160405290816000820160405180604001604052908160008201805461014890610b4d565b80601f016020809104026020016040519081016040528092919081815260200182805461017490610b4d565b80156101c15780601f10610196576101008083540402835291602001916101c1565b820191906000526020600020905b8154815290600101906020018083116101a457829003601f168201915b505050505081526020016001820154815250508152602001600282016040518060400160405290816000820180546101f890610b4d565b80601f016020809104026020016040519081016040528092919081815260200182805461022490610b4d565b80156102715780601f1061024657610100808354040283529160200191610271565b820191906000526020600020905b81548152906001019060200180831161025457829003601f168201915b505050505081526020016001820154815250508152505081526020019060010190610105565b505050509050919050565b6000604051806040016040528086815260200185815250905060006040518060400160405280858152602001848152509050600060405180604001604052808481526020018381525090506000886040516102fd9190610b07565b908152602001604051809103902081908060018154018082558091505060019003906000526020600020906004020160009091909190915060008201518160000160008201518160000190816103539190610d2a565b50602082015181600101555050602082015181600201600082015181600001908161037e9190610d2a565b5060208201518160010155505050505050505050505050565b6060600060606000806000876040516103b09190610b07565b908152602001604051809103902086815481106103d0576103cf610dfc565b5b9060005260206000209060040201905080600001600001816000016001015482600201600001836002016001015483805461040a90610b4d565b80601f016020809104026020016040519081016040528092919081815260200182805461043690610b4d565b80156104835780601f1061045857610100808354040283529160200191610483565b820191906000526020600020905b81548152906001019060200180831161046657829003601f168201915b5050505050935081805461049690610b4d565b80601f01602080910402602001604051908101604052809291908181526020018280546104c290610b4d565b801561050f5780601f106104e45761010080835404028352916020019161050f565b820191906000526020600020905b8154815290600101906020018083116104f257829003601f168201915b5050505050915094509450945094505092959194509250565b6000604051905090565b600080fd5b600080fd5b600080fd5b600080fd5b6000601f19601f8301169050919050565b7f4e487b7100000000000000000000000000000000000000000000000000000000600052604160045260246000fd5b61058f82610546565b810181811067ffffffffffffffff821117156105ae576105ad610557565b5b80604052505050565b60006105c1610528565b90506105cd8282610586565b919050565b600067ffffffffffffffff8211156105ed576105ec610557565b5b6105f682610546565b9050602081019050919050565b82818337600083830152505050565b6000610625610620846105d2565b6105b7565b90508281526020810184848401111561064157610640610541565b5b61064c848285610603565b509392505050565b600082601f8301126106695761066861053c565b5b8135610679848260208601610612565b91505092915050565b60006020828403121561069857610697610532565b5b600082013567ffffffffffffffff8111156106b6576106b5610537565b5b6106c284828501610654565b91505092915050565b600081519050919050565b600082825260208201905092915050565b6000819050602082019050919050565b600081519050919050565b600082825260208201905092915050565b60005b83811015610731578082015181840152602081019050610716565b60008484015250505050565b6000610748826106f7565b6107528185610702565b9350610762818560208601610713565b61076b81610546565b840191505092915050565b6000819050919050565b61078981610776565b82525050565b600060408301600083015184820360008601526107ac828261073d565b91505060208301516107c16020860182610780565b508091505092915050565b600060408301600083015184820360008601526107e9828261078f565b91505060208301518482036020860152610803828261078f565b9150508091505092915050565b600061081c83836107cc565b905092915050565b6000602082019050919050565b600061083c826106cb565b61084681856106d6565b935083602082028501610858856106e7565b8060005b8581101561089457848403895281516108758582610810565b945061088083610824565b925060208a0199505060018101905061085c565b50829750879550505050505092915050565b600060208201905081810360008301526108c08184610831565b905092915050565b6108d181610776565b81146108dc57600080fd5b50565b6000813590506108ee816108c8565b92915050565b600080600080600060a086880312156109105761090f610532565b5b600086013567ffffffffffffffff81111561092e5761092d610537565b5b61093a88828901610654565b955050602086013567ffffffffffffffff81111561095b5761095a610537565b5b61096788828901610654565b9450506040610978888289016108df565b935050606086013567ffffffffffffffff81111561099957610998610537565b5b6109a588828901610654565b92505060806109b6888289016108df565b9150509295509295909350565b600080604083850312156109da576109d9610532565b5b600083013567ffffffffffffffff8111156109f8576109f7610537565b5b610a0485828601610654565b9250506020610a15858286016108df565b9150509250929050565b600082825260208201905092915050565b6000610a3b826106f7565b610a458185610a1f565b9350610a55818560208601610713565b610a5e81610546565b840191505092915050565b610a7281610776565b82525050565b60006080820190508181036000830152610a928187610a30565b9050610aa16020830186610a69565b8181036040830152610ab38185610a30565b9050610ac26060830184610a69565b95945050505050565b600081905092915050565b6000610ae1826106f7565b610aeb8185610acb565b9350610afb818560208601610713565b80840191505092915050565b6000610b138284610ad6565b915081905092915050565b7f4e487b7100000000000000000000000000000000000000000000000000000000600052602260045260246000fd5b60006002820490506001821680610b6557607f821691505b602082108103610b7857610b77610b1e565b5b50919050565b60008190508160005260206000209050919050565b60006020601f8301049050919050565b600082821b905092915050565b600060088302610be07fffffffffffffffffffffffffffffffffffffffffffffffffffffffffffffffff82610ba3565b610bea8683610ba3565b95508019841693508086168417925050509392505050565b6000819050919050565b6000610c27610c22610c1d84610776565b610c02565b610776565b9050919050565b6000819050919050565b610c4183610c0c565b610c55610c4d82610c2e565b848454610bb0565b825550505050565b600090565b610c6a610c5d565b610c75818484610c38565b505050565b5b81811015610c9957610c8e600082610c62565b600181019050610c7b565b5050565b601f821115610cde57610caf81610b7e565b610cb884610b93565b81016020851015610cc7578190505b610cdb610cd385610b93565b830182610c7a565b50505b505050565b600082821c905092915050565b6000610d0160001984600802610ce3565b1980831691505092915050565b6000610d1a8383610cf0565b9150826002028217905092915050565b610d33826106f7565b67ffffffffffffffff811115610d4c57610d4b610557565b5b610d568254610b4d565b610d61828285610c9d565b600060209050601f831160018114610d945760008415610d82578287015190505b610d8c8582610d0e565b865550610df4565b601f198416610da286610b7e565b60005b82811015610dca57848901518255600182019150602085019450602081019050610da5565b86831015610de75784890151610de3601f891682610cf0565b8355505b6001600288020188555050505b505050505050565b7f4e487b7100000000000000000000000000000000000000000000000000000000600052603260045260246000fdfea264697066735822122008d67ed1554866d91f02bcc9d6840abfb88468f5db4fc60d8eefad1c9f08209c64736f6c63430008140033",
  "linkReferences": {},
  "deployedLinkReferences": {}
}