{
  "_format": "hh-sol-artifact-1",
  "contractName": "helloWorld",
  "sourceName": "contracts/test.sol",
  "abi": [
    {
      "inputs": [],
      "stateMutability": "nonpayable",
      "type": "constructor"
    },
    {
      "anonymous": false,
      "inputs": [
        {
          "indexed": false,
          "internalType": "address",
          "name": "from",
          "type": "address"
        },
        {
          "indexed": false,
          "internalType": "address",
          "name": "to",
          "type": "address"
        },
        {
          "indexed": false,
          "internalType": "uint256",
          "name": "amount",
          "type": "uint256"
        }
      ],
      "name": "Sent",
      "type": "event"
    },
    {
      "inputs": [
        {
          "internalType": "address",
          "name": "",
          "type": "address"
        }
      ],
      "name": "balances",
      "outputs": [
        {
          "internalType": "uint256",
          "name": "",
          "type": "uint256"
        }
      ],
      "stateMutability": "view",
      "type": "function"
    },
    {
      "inputs": [],
      "name": "greeting",
      "outputs": [
        {
          "internalType": "uint256",
          "name": "",
          "type": "uint256"
        }
      ],
      "stateMutability": "view",
      "type": "function"
    },
    {
      "inputs": [
        {
          "internalType": "address",
          "name": "receiver",
          "type": "address"
        },
        {
          "internalType": "uint256",
          "name": "amount",
          "type": "uint256"
        }
      ],
      "name": "setBalance",
      "outputs": [],
      "stateMutability": "nonpayable",
      "type": "function"
    },
    {
      "inputs": [
        {
          "internalType": "uint256",
          "name": "nbr",
          "type": "uint256"
        }
      ],
      "name": "setgreeting",
      "outputs": [],
      "stateMutability": "nonpayable",
      "type": "function"
    }
  ],
  "bytecode": "0x608060405234801561001057600080fd5b50602a600081905550610437806100286000396000f3fe608060405234801561001057600080fd5b506004361061004c5760003560e01c806327e235e3146100515780633ae70acc14610081578063e30443bc1461009d578063ef690cc0146100b9575b600080fd5b61006b60048036038101906100669190610214565b6100d7565b60405161007891906102f7565b60405180910390f35b61009b60048036038101906100969190610279565b6100ef565b005b6100b760048036038101906100b2919061023d565b6100f9565b005b6100c16101e4565b6040516100ce91906102f7565b60405180910390f35b60016020528060005260406000206000915090505481565b8060008190555050565b80600160003373ffffffffffffffffffffffffffffffffffffffff1673ffffffffffffffffffffffffffffffffffffffff16815260200190815260200160002060008282546101489190610312565b9250508190555080600160008473ffffffffffffffffffffffffffffffffffffffff1673ffffffffffffffffffffffffffffffffffffffff168152602001908152602001600020600082825461019e9190610312565b925050819055507f3990db2d31862302a685e8086b5755072a6e2b5b780af1ee81ece35ee3cd33453383836040516101d8939291906102c0565b60405180910390a15050565b60005481565b6000813590506101f9816103d3565b92915050565b60008135905061020e816103ea565b92915050565b60006020828403121561022657600080fd5b6000610234848285016101ea565b91505092915050565b6000806040838503121561025057600080fd5b600061025e858286016101ea565b925050602061026f858286016101ff565b9150509250929050565b60006020828403121561028b57600080fd5b6000610299848285016101ff565b91505092915050565b6102ab81610368565b82525050565b6102ba8161039a565b82525050565b60006060820190506102d560008301866102a2565b6102e260208301856102a2565b6102ef60408301846102b1565b949350505050565b600060208201905061030c60008301846102b1565b92915050565b600061031d8261039a565b91506103288361039a565b9250827fffffffffffffffffffffffffffffffffffffffffffffffffffffffffffffffff0382111561035d5761035c6103a4565b5b828201905092915050565b60006103738261037a565b9050919050565b600073ffffffffffffffffffffffffffffffffffffffff82169050919050565b6000819050919050565b7f4e487b7100000000000000000000000000000000000000000000000000000000600052601160045260246000fd5b6103dc81610368565b81146103e757600080fd5b50565b6103f38161039a565b81146103fe57600080fd5b5056fea2646970667358221220ad54d1cb500f76c73ed852dccaa8fcbc465d261af2b49a3feba0b1406f8c75e464736f6c63430008000033",
  "linkReferences": {},
  "deployedLinkReferences": {}
}